:020000040000FA
:1000000018020010E1000000E9000000EB00000011
:10001000ED000000EF000000F10000000000000013
:10002000000000000000000000000000F3000000DD
:10003000F500000000000000F70000005902000079
:10004000FB000000FB000000FB000000FB000000C4
:10005000FB000000FB000000FB000000FB000000B4
:10006000FB000000FB000000FB000000FB000000A4
:10007000FB000000FB000000FB000000FB00000094
:10008000FB000000FB000000FB000000FB00000084
:10009000FB000000FB0000003D070000FB0000002B
:1000A000FB000000FB000000FB000000FB00000064
:1000B000FB000000FB000000FB000000FB00000054
:1000C000FB000000FB000000FB000000DFF80CD08C
:1000D00000F092FB004800471906000018020010CB
:1000E0000648804706480047FEE7FEE7FEE7FEE7D2
:1000F000FEE7FEE7FEE7FEE7FEE7FEE7A9040000F5
:10010000CD0000005048006840F400404F49C1F85D
:10011000C4004F48006A40F030404D49086208462C
:10012000006C40F07C0008647047032808D24849FE
:10013000496B484A52F820201143454A516307E071
:100140004349496D434A52F820201143404A5165C2
:100150007047032808D23E49496B3E4A52F8202096
:1001600091433B4A516307E03949496D394A52F896
:1001700020209143364A5165704710B5044600234C
:100180005FE00320FFF7D1FF0220FFF7E2FF01202D
:10019000FFF7DFFF0020FFF7C8FF002300E05B1C34
:1001A0004CF250308342FADB0320FFF7BEFF0220FF
:1001B000FFF7CFFF0120FFF7CCFF0020FFF7B5FFCF
:1001C000002300E05B1C4CF250308342FADB03203A
:1001D000FFF7ABFF0220FFF7A8FF0120FFF7B9FFF1
:1001E0000020FFF7B6FF002300E05B1C4CF250300C
:1001F0008342FADB0320FFF7ACFF0220FFF795FFF5
:100200000120FFF792FF0020FFF7A3FF002300E08B
:100210005B1C4CF250308342FADB0320FFF799FF5E
:100220000220FFF796FF0120FFF77FFF0020FFF776
:100230007CFF002300E05B1C4CF250308342FADB71
:100240005B1C082B9DDB10BDC4C00F4000C00F40DD
:1002500000C009202C08000010B51748016800688C
:10026000401C154A1060632905D300201146086020
:10027000012012490870124801680068401C104AA9
:10028000106010480088B1EB202F12D300201146D7
:1002900008600D48006840000B4908600846006887
:1002A000B0F5807F01D90120086007480068FFF79A
:1002B00064FF00F02DFA10BD0400001010000010C3
:1002C00008000010140000100C000010202A04DBAD
:1002D000203A00FA02F1002070479140C2F1200359
:1002E00020FA03F319439040704702E008C8121F38
:1002F00008C1002AFAD1704770470000FFFFFFFFD6
:100300002DE9F047B1480068C0F3016003287CD1B3
:10031000AF48006810F0030006D0012833D002284F
:100320005FD003282ED100E000BFA8480068C0F3CA
:10033000074000F101044FF00201A648D0F8880000
:10034000C0F30E0000F10100A1FB0001A24B4FF031
:10035000000CA0FB037901FB039100FB0C1122466A
:100360006346384600F006FA05469C480068C0B26D
:1003700000F1010422464FF00003284600F0FAF98C
:10038000974908605DE091480068C0F3074000F1BC
:1003900001044FF002018F48D0F88800C0F30E002E
:1003A00000F10100A1FB00108E4A4FF0000CA1FBF0
:1003B000027900FB029001FB0C012246634638469D
:1003C00000F0D8F9054685480068C0B200F1010484
:1003D00022464FF00003284600F0CCF9804908601F
:1003E0002FE07A480068C0F3074000F101044FF0A5
:1003F00002017848D0F88800C0F30E0000F1010037
:10040000A1FB00124FF4004000E01BE04FF000039E
:10041000A1FB007902FB009001FB03012246384654
:1004200000F0A8F905466D480068C0B200F101046B
:1004300022464FF00003284600F09CF96849086006
:1004400000BF2FE06248006810F0030006D00128CA
:1004500010D0022819D0032823D100E000BF5F4844
:100460000068C0B200F101005B49B1FBF0F05C49EB
:10047000086016E059480068C0B200F1010059490F
:10048000B1FBF0F0564908600BE054480068C0B278
:1004900000F101004FF40041B1FBF0F05049086059
:1004A00000BF00BFBDE8F08720204F4908604948E1
:1004B000D0F8A00110F0200F05D000BF4A48006816
:1004C00010F0400FFAD00320444908604FF00000BC
:1004D0004049C1F8A801454908604FF001003C4976
:1004E00008604348434908604FF0AA004249086049
:1004F0004FF0550008604FF00100404908604FF090
:10050000AA003D4908604FF055003249C1F88C00FF
:1005100000BF2E48006810F0806FFAD003203749E2
:1005200008604FF0AA002B49C1F88C004FF055002D
:100530003149086000BF2548006800F04070B0F104
:10054000407FF8D123202E4908604FF0AA002149AE
:10055000C1F8AC004FF055002A4908604FF0010087
:10056000294908604FF0AA00264908604FF055005D
:100570001849C1F8AC0000BF2448006810F4806F2F
:10058000FAD00320204908604FF0AA001149C1F8B1
:10059000AC004FF055001B49086000BF1B480068C5
:1005A00000F44070B0F5407FF8D11948194908604F
:1005B0004FF000000749C1F8C8010846006820F460
:1005C000704040F4804008607047000088C00F40D1
:1005D0000CC10F4000C00F4000093D0004C10F4096
:1005E00000000010001BB700A0C10F40ACC10F40BD
:1005F0006300050084C00F408CC00F4080C00F40D6
:10060000A4C00F40ACC00F40A0C00F40A8C00F4016
:10061000DE872804C4C00F40002400BF00BFFFF7DE
:1006200071FD00F043F81C4800686422B0FBF2F151
:10063000481EB0F1807F00D31BE0481E4FF0E0223F
:10064000506150171F22002807DAD3061E0E134BE5
:1006500000F00F052D1F5E5503E0D3061D0E104B55
:100660001D5400BF00204FF0E02290610720106170
:1006700000BF0FE00B48007860B100200949087006
:100680000948008804EB0024641CE0B2102801D162
:1006900000BF0024EEE700000000001018ED00E0AD
:1006A00000E400E012000010140000102A48006866
:1006B00040F410402949C1F8C4002948406820F49A
:1006C0004020274948600846406840F48020486040
:1006D0000846406C20F4402048640846406C40F4D2
:1006E000002048641F48204908604FF48070C860AB
:1006F0004FF016004FF0010101FA00F14FEA5012DD
:100700004FF0E02303EB8202C2F8001100BF7047F4
:100710001548006820F0E06013490860084600684A
:1007200040F08070086070470F48006820F0E0607B
:100730000D49086070470D480088704708B50A48A1
:10074000006B009008484068C0F30B100749088010
:1007500001200749087008BDC4C00F4000C00F4009
:1007600000C00240040420000040034014000010B8
:10077000120000102DE9F05F0546002092469B46CE
:1007800088460646814640241BE0284641464746A7
:10079000224600F020F853465A46C01A914110D321
:1007A000114618462246FFF791FD2D1A67EB010806
:1007B0004F46224601200021FFF788FD17EB000974
:1007C0004E41201EA4F10104DFDC484631462A4692
:1007D0004346BDE8F09F202A04DB203A21FA02F0CC
:1007E0000021704721FA02F3D040C2F1200291406B
:1007F0000843194670470000064C074D06E0E068C4
:1008000040F0010394E8070098471034AC42F6D357
:10081000FFF760FC4C0800006C080000002001E0BD
:1008200001C1121F002AFBD1704700000000001018
:10083000000000200000008004000000080000000C
:100840001000000020000000400000006C080000C4
:100850000000001018000000EA02000084080000F8
:1008600018000010000200001C08000000E1F5055F
:100870000000000000000000010000000000000077
:040880000000000074
:04000005000000CD2A
:00000001FF
