:020000040000FA
:100000001802001069010000710100007301000076
:100010007501000077010000790100000000000078
:100020000000000000000000000000007B01000054
:100030007D010000000000007F010000F1050000CC
:1000400083010000830100008301000083010000A0
:100050008301000083010000830100008301000090
:100060008301000083010000830100008301000080
:100070008301000083010000830100008301000070
:100080008301000083010000830100008301000060
:10009000830100008301000083070000830100004A
:1000A0008301000083010000830100008301000040
:1000B0008301000083010000830100008301000030
:1000C00083010000830100008301000000F002F8BA
:1000D00000F03AF80AA090E8000C82448344AAF1A8
:1000E0000107DA4501D100F02FF8AFF2090EBAE8A6
:1000F0000F0013F0010F18BFFB1A43F0010318475C
:10010000C8070000E8070000103A24BF78C878C18B
:10011000FAD8520724BF30C830C144BF04680C600D
:10012000704700000023002400250026103A28BF55
:1001300078C1FBD8520728BF30C148BF0B60704759
:100140001FB51FBD10B510BDDFF80CD0FFF7F8FFCD
:1001500000F088FA00F0C3F81802001003B4FFF7AB
:10016000F1FF03BC00F028F8064880470648004726
:10017000FEE7FEE7FEE7FEE7FEE7FEE7FEE7FEE757
:10018000FEE7FEE799040000CD00000070B50446CC
:100190000D46204600F032F870BD10B5044600F060
:1001A00037F810BD01464FF0FF30704710B50446D8
:1001B000204600F023F810BD00BFFEE71948006894
:1001C00048F2100108431749C439C1F8C400164861
:1001D000006940F00200144908610846006940F0D7
:1001E0000800086183201149087309200870212044
:1001F00088620020087103200873704700BF0B4914
:10020000097D01F020010029F9D0084A10707047DB
:1002100000BF0648007D00F001000028F9D0034827
:1002200000787047C4C00F4000C002400000014089
:100230002748006840F400402549C439C1F8C4008B
:100240002448006A40F03040224908620846006CA9
:1002500040F07C0008647047032808D21D49496BB0
:100260001D4A52F8202011431A4A516307E01949E8
:10027000496D194A52F820201143164A51657047BA
:10028000032808D21349496B134A52F8202091439E
:10029000104A516307E00F49496D0F4A52F8202078
:1002A00091430C4A5165704710B5044600230BE09A
:1002B00001209840204018B11846FFF7CDFF02E01A
:1002C0001846FFF7DDFF5B1C082BF1DB10BD0000BB
:1002D000C4C00F4000C00920A8080000704710B536
:1002E0000446AFF300802046BDE81040FFF736BF5C
:1002F000000000000000000000000000FFFFFFFF02
:100300002DE9F047B3480068C0F3016003287DD1B0
:10031000B0488430006800F0030030B1012830D0CC
:10032000022859D003282BD100E000BFA94800685B
:10033000C0F30740441C0221A6488838D0F8880042
:10034000C0F30E00401CA1FB0001A34B4FF0000CBA
:10035000A0FB037901FB039100FB0C1122466346CD
:10036000384600F029FA05469A487C300068C0B249
:10037000441C22460023284600F01EFA97490860D4
:1003800056E094480068C0F30740441C022191489D
:100390008838D0F88800C0F30E00401CA1FB001084
:1003A0008F4A4FF0000CA1FB027900FB029001FB89
:1003B0000C0122466346384600F0FEF905468548A2
:1003C0007C300068C0B2441C22460023284600F05E
:1003D000F3F9824908602BE07E480068C0F30740CB
:1003E000441C02217B488838D0F88800C0F30E00F6
:1003F000401CA1FB00124FF400400023A1FB007938
:1004000002FB009001FB0301224600E011E03846A8
:1004100000F0D2F905466F487C300068C0B2441C39
:1004200022460023284600F0C7F96C49086000BF47
:1004300030E068488430006800F0030030B10128E3
:1004400010D0022819D0032823D100E000BF614852
:100450007C300068C0B2401C5F49B1FBF0F05F49DE
:10046000086016E05B487C300068C0B2401C5C4904
:10047000B1FBF0F0594908600BE056487C30006849
:10048000C0B2401C4FF40041B1FBF0F0534908608A
:1004900000BF00BFBDE8F0872020524908604D48EA
:1004A0008838D0F8A00100F0200030B100BF4D48DE
:1004B000006800F040000028F9D0032045497C3155
:1004C0000860002043498839C1F8A80145490C312A
:1004D000086001203F498431086043483D49091FB5
:1004E0000860AA203B49091D0860552008600120CA
:1004F000384908390860AA203649091D0860552086
:1005000034498839C1F88C0000BF3248006800F0D7
:1005100080600028F9D003202E4908390860AA20FD
:100520002C498839C1F88C0055202A49091D0860DA
:1005300000BF2848006800F04070B0F1407FF8D15B
:10054000232024491C310860AA2022498839C1F897
:10055000AC0055201F492431086001201D49183185
:100560000860AA201B4924310860552019498839A0
:10057000C1F8AC0000BF17482030006800F480606C
:100580000028F8D00320134918310860AA20114927
:100590008839C1F8AC0055200E492431086000BFED
:1005A0000C482030006800F44070B0F5407FF7D16F
:1005B0000E4808493C310860002006498839C1F8D6
:1005C000C8010846006820F4704040F4804008608C
:1005D0007047000088C00F4000093D000000001077
:1005E000001BB700A0C10F4063000500DE87280490
:1005F00010B5174801680068401C154A106063294F
:1006000005D30020114608600120124908701248E5
:1006100001680068401C104A106010480088B1EB67
:10062000202F12D30020114608600D4800684000BA
:100630000B49086008460068B0F5807F01D90120A9
:10064000086007480068FFF72FFE00F084F810BD2F
:1006500008000010040000100C000010140000102E
:1006600010000010002400BF00BFFFF7E1FDFFF7FE
:10067000A5FD00F043F81C4800686422B0FBF2F1CD
:10068000481EB0F1807F00D31BE0481E4FF0E022EF
:10069000506150171F22002807DAD3061E0E134B95
:1006A00000F00F052D1F5E5503E0D3061D0E104B05
:1006B0001D5400BF00204FF0E02290610720106120
:1006C00000BF0FE00B48007860B1002009490870B6
:1006D0000948008804EB0024641CE0B2102801D112
:1006E00000BF0024EEE700000000001018ED00E05D
:1006F00000E400E016000010140000102848006814
:1007000040F410402649C439C1F8C4002548406867
:1007100020F44020234948600846406840F4802087
:1007200048600846406C20F4402048640846406C0D
:1007300040F4002048641C481C4908604013C8600D
:100740001620012181404209920002F1E022C2F804
:10075000001100BF70471548006820F0E0601349A1
:1007600008600846006840F08070086070470F48D5
:10077000006820F0E0600D49086070470C48008870
:10078000704708B50948006B009008484068C0F3FE
:100790000B100749088001200649087008BD0000B9
:1007A000C4C00F4000C002400404200000400340C9
:1007B000140000101600001053EA020C00F06980CB
:1007C0002DE9F04B4FF00006002B1FBFB3FA83F565
:1007D00003FA05F424FA05F65E4012BF1643B2FA96
:1007E00082F502FA05F4C5F120051EBF22FA05FCC8
:1007F00044EA0C04203556EA044C4FEA144418BF6E
:10080000641C4FF000084FF00009904271EB030C9C
:1008100039D3002919BFB1FA81F701FA07F6B0FA06
:1008200080F700FA07F6C7F120071EBF20FA07FC81
:1008300046EA0C062037B6FBF4FCA7EB0507103F91
:1008400007F01F0BCBF120060CFA0BFB2CFA06F677
:1008500044BFB3460026202FA4BF5E464FF0000BD6
:100860005BEA060C08BF4FF0010B19EB0B09ABFB61
:10087000027C48EB0608C01B06FB02CC0BFB03CC3A
:1008800071EB0C01C1E70B46024641464846BDE804
:10089000F08B13B54FF000004FF00001AFF3008074
:1008A000BDE81C4070470000000000100000002060
:1008B000000000800400000008000000100000009C
:1008C0002000000040000000E808000000000010C8
:1008D00018000000080100000009000018000010C6
:1008E000000200002401000000E1F5050000000006
:1008F00000000000000000000100000000000000F7
:04000005000001698D
:00000001FF
