:020000040000FA
:100000003802001079010000810100008301000026
:100010008501000087010000890100000000000048
:100020000000000000000000000000008B01000044
:100030008D010000000000008F0100008D11000004
:100040009301000093010000930100009301000060
:100050009301000093010000930100009301000050
:100060009301000093010000930100009301000040
:100070009301000093010000930100009301000030
:100080009301000093010000930100009301000020
:100090009301000093010000471400009301000049
:1000A0009301000093010000930100009301000000
:1000B00093010000930100009301000093010000F0
:1000C00093010000930100009301000000F002F88A
:1000D00000F042F80AA090E8000C82448344AAF1A0
:1000E0000107DA4501D100F037F8AFF2090EBAE89E
:1000F0000F0013F0010F18BFFB1A43F0010318475C
:100100000C3100002C310000103A24BF78C878C1AF
:10011000FAD8520724BF30C830C144BF04680C600D
:10012000704700000023002400250026103A28BF55
:1001300078C1FBD8520728BF30C148BF0B60704759
:10014000782901F08382732901F0CC830020704765
:100150001FB51FBD10B510BDDFF80CD0FFF7F8FFBD
:1001600001F04EF801F0D4FB3802001003B4FFF7A1
:10017000F1FF03BC00F028F8064880470648004716
:10018000FEE7FEE7FEE7FEE7FEE7FEE7FEE7FEE747
:10019000FEE7FEE799040000CD00000070B50446BC
:1001A0000D46204600F032F870BD10B5044600F050
:1001B00037F810BD01464FF0FF30704710B50446C8
:1001C000204600F023F810BD00BFFEE71948006884
:1001D00048F2100108431749C439C1F8C400164851
:1001E000006940F00200144908610846006940F0C7
:1001F0000800086183201149087309200870212034
:1002000088620020087103200873704700BF0B4903
:10021000097D01F020010029F9D0084A10707047CB
:1002200000BF0648007D00F001000028F9D0034817
:1002300000787047C4C00F4000C002400000014079
:100240002748006840F400402549C439C1F8C4007B
:100250002448006A40F03040224908620846006C99
:1002600040F07C0008647047032808D21D49496BA0
:100270001D4A52F8202011431A4A516307E01949D8
:10028000496D194A52F820201143164A51657047AA
:10029000032808D21349496B134A52F8202091438E
:1002A000104A516307E00F49496D0F4A52F8202068
:1002B00091430C4A5165704710B5044600230BE08A
:1002C00001209840204018B11846FFF7CDFF02E00A
:1002D0001846FFF7DDFF5B1C082BF1DB10BD0000AB
:1002E000C4C00F4000C00920B031000070470A6848
:1002F00002F8010B0A60704700000000FFFFFFFFDB
:100300002DE9F047B3480068C0F3016003287DD1B0
:10031000B0488430006800F0030030B1012830D0CC
:10032000022859D003282BD100E000BFA94800685B
:10033000C0F30740441C0221A6488838D0F8880042
:10034000C0F30E00401CA1FB0001A34B4FF0000CBA
:10035000A0FB037901FB039100FB0C1122466346CD
:10036000384601F08BF805469A487C300068C0B2E8
:10037000441C22460023284601F080F89749086073
:1003800056E094480068C0F30740441C022191489D
:100390008838D0F88800C0F30E00401CA1FB001084
:1003A0008F4A4FF0000CA1FB027900FB029001FB89
:1003B0000C0122466346384601F060F80546854840
:1003C0007C300068C0B2441C22460023284601F05D
:1003D00055F8824908602BE07E480068C0F307406A
:1003E000441C02217B488838D0F88800C0F30E00F6
:1003F000401CA1FB00124FF400400023A1FB007938
:1004000002FB009001FB0301224600E011E03846A8
:1004100001F034F805466F487C300068C0B2441CD7
:1004200022460023284601F029F86C49086000BFE5
:1004300030E068488430006800F0030030B10128E3
:1004400010D0022819D0032823D100E000BF614852
:100450007C300068C0B2401C5F49B1FBF0F05F49DE
:10046000086016E05B487C300068C0B2401C5C4904
:10047000B1FBF0F0594908600BE056487C30006849
:10048000C0B2401C4FF40041B1FBF0F0534908608A
:1004900000BF00BFBDE8F0872020524908604D48EA
:1004A0008838D0F8A00100F0200030B100BF4D48DE
:1004B000006800F040000028F9D0032045497C3155
:1004C0000860002043498839C1F8A80145490C312A
:1004D000086001203F498431086043483D49091FB5
:1004E0000860AA203B49091D0860552008600120CA
:1004F000384908390860AA203649091D0860552086
:1005000034498839C1F88C0000BF3248006800F0D7
:1005100080600028F9D003202E4908390860AA20FD
:100520002C498839C1F88C0055202A49091D0860DA
:1005300000BF2848006800F04070B0F1407FF8D15B
:10054000232024491C310860AA2022498839C1F897
:10055000AC0055201F492431086001201D49183185
:100560000860AA201B4924310860552019498839A0
:10057000C1F8AC0000BF17482030006800F480606C
:100580000028F8D00320134918310860AA20114927
:100590008839C1F8AC0055200E492431086000BFED
:1005A0000C482030006800F44070B0F5407FF7D16F
:1005B0000E4808493C310860002006498839C1F8D6
:1005C000C8010846006820F4704040F4804008608C
:1005D0007047000088C00F4000093D000000001077
:1005E000001BB700A0C10F4063000500DE87280490
:1005F000800400BF011EA0F10100FBD170472DE96E
:10060000F04106460D460027012D06D1FE48006840
:1006100040F40070FC49086005E0FB48006820F4E5
:100620000070F9490860072422E08020F649C8617B
:100630000120FFF7DDFF012D0CD10120A04030404B
:1006400018B16802F04988610BE04FF40070EE4980
:10065000C86106E0EC484069C0F34020A040384340
:10066000C7B28020E84988610120FFF7C1FF641EFE
:10067000002CDADA3846BDE8F08110B50446402097
:10068000E149C861702000F048FD002000F045FD00
:10069000204600F042FD4020DB49886110BD10B5C6
:1006A00004464020D849C861722000F036FD20126F
:1006B00000F033FDE0B200F030FD4020D249886107
:1006C00010BD70B505462846FFF7D7FF00BF0024D0
:1006D0004020CD49C861732000F01FFD002000F0CC
:1006E0001CFD002000F019FD04464FF6FF7000EAE3
:1006F0000424002000F011FD04434020C249886119
:10070000204670BD10B5C148006820F47C20BF4968
:1007100008600846006C40F42A200864BA48006863
:1007200040F08000B84908604020886180208861DE
:100730004020C86101217020FFF761FF01210020E6
:10074000FFF75DFF4020B0498861C8610121732037
:10075000FFF755FF00210846FFF751FF04464020F0
:10076000A94988610846006820F080000860A74811
:10077000006840F42820A54908600846006C20F471
:100780007F200864204610BD10B5A148006840F4E1
:1007900080609F49C439C1F8C4000846D0F8A80158
:1007A00040F40010C1F8A8019848406A20F0706039
:1007B000964948629448D0F8800040F040509249F1
:1007C0008031086088059049C1F8980008460068A3
:1007D00040F040000860402088618C48006820F4A8
:1007E0007C208A4908600846006840F42820086098
:1007F00040F2C71087490860022008614860FFF78F
:1008000081FF04461CB90020FFF75BFF0446472C1C
:100810007DD10120804908700021EA2000F0A0FC71
:100820002021EB2000F09CFC0C21EC2000F098FC37
:10083000C721ED2000F094FC3821E82000F090FC66
:100840001021E92000F08CFC0121F12000F088FC4F
:100850001021F22000F084FC0121402000F080FCF7
:100860000021412000F07CFC0021422000F078FCB7
:100870001021432000F074FC0E21442000F070FC95
:100880002421452000F06CFC0421462000F068FC87
:100890005021472000F064FC0221482000F060FC59
:1008A0001321492000F05CFC19214A2000F058FC7B
:1008B00019214B2000F054FC16214C2000F050FC74
:1008C0001B21502000F04CFC3121512000F048FC4D
:1008D0002F21522000F044FC3F21532000F040FC27
:1008E0003F21542000F03CFC3E21552000F038FC14
:1008F0002F21562000F034FC7B21572000F030FCE3
:100900000921582000F02CFC0621592000E094E039
:1009100000F026FC06215A2000F022FC0C215B206E
:1009200000F01EFC1D215C2000F01AFCCC215D2093
:1009300000F016FC1B21084600F012FC01211A20D1
:1009400000F00EFC2F21242000F00AFC5721252066
:1009500000F006FC8821232000F002FC362118203C
:1009600000F0FEFB0121192000F0FAFB002101201C
:1009700000F0F6FB88211F2000F0F2FB1420FFF7A7
:1009800037FE82211F2000F0EBFB0520FFF730FE31
:1009900092211F2000F0E4FB0520FFF729FED22161
:1009A0001F2000F0DDFB0520FFF722FE5521172058
:1009B00000F0D6FB0021084600F0D2FB11212F20C9
:1009C00000F0CEFB0021312000F0CAFB00213220D4
:1009D00000F0C6FB3821282000F0C2FB1420FFF7EE
:1009E00007FE3C21282000F0BBFB6821162000F008
:1009F000B7FB00210E2000F0B3FB00210F2000F018
:100A0000AFFB0121102009E000C0092000C0024016
:100A1000C4C00F40000003400800001000F0A0FB1D
:100A20004021112000F09CFB0021122000F098FBD7
:100A30000021132000F094FB91E10020F949087097
:100A40000021012000F08CFB4FF4E061022000F057
:100A500087FB0021042000F083FB40F207210820DF
:100A600000F07EFB0021092000F07AFB00210A2023
:100A700000F076FB00210C2000F072FB00210D201D
:100A800000F06EFB00210F2000F06AFB0021102017
:100A900000F066FB0021112000F062FB0021122013
:100AA00000F05EFB0021132000F05AFB1420FFF73A
:100AB0009FFD41F2B021102000F052FB07211120D0
:100AC00000F04EFB0520FFF793FD40F2BD11122010
:100AD00000F046FB0520FFF78BFD4FF4A0511320DB
:100AE00000F03EFB0E21292000F03AFB0520FFF725
:100AF0007FFD0021202000F033FB0021212000F0A9
:100B00002FFBA4F5A840083838B1A0F57C50183860
:100B100000287DD005287CD150E040F60D313020F2
:100B200000F01EFB41F62311312000F019FB41F6C5
:100B30002641322000F014FB42F21C61332000F009
:100B40000FFB42F21941342000F00AFB40F60B5132
:100B5000352000F005FB41F20601362000F000FBD5
:100B60004FF4C261372000F0FBFA40F206713820E2
:100B700000F0F6FA4FF44171392000F0F1FA40F636
:100B800005613A2000F0ECFA40F601613B2000F0EC
:100B9000E7FA4FF487713C2000F0E2FA40F20E5180
:100BA0003D2000F0DDFA40F203413E2000F0D8FA8B
:100BB00040F207613F2000F0D3FA61E000213020CD
:100BC00000F0CEFA40F20761312000F0C9FA40F29D
:100BD0000531322000F0C4FA0021352000F0C0FABF
:100BE00041F20461362000F0BBFA4FF40171372066
:100BF00000F0B6FA0121382000F0B2FA40F2077195
:100C0000392000F0ADFA00213C2000F0A9FA01E003
:100C100006E004E00F213D2000F0A2FA30E000BF22
:100C20000621302000F09CFA40F20111312000F042
:100C300097FA0321322000F093FA4FF483713520A4
:100C400000F08EFA40F60231362000F089FA40F2C8
:100C50000231372000F084FA40F20771382000F0AA
:100C60007FFA0721392000F07BFA4FF4C0613C2065
:100C700000F076FA40F20B213D2000F071FA00BF3F
:100C800000BF0021502000F06BFAEF21512000F04E
:100C900067FA0021522000F063FA40F23F1153201E
:100CA00000F05EFAA4F5A840083830B1A0F57C50F9
:100CB000183850B1052807D100E000BF4FF4274194
:100CC000602000F04DFA06E000BF4FF41C51602098
:100CD00000F046FA00BF00BF0121612000F040FA99
:100CE00000216A2000F03CFA0021802000F038FA50
:100CF0000021812000F034FA0021822000F030FA37
:100D00000021832000F02CFA0021842000F028FA32
:100D10000021852000F024FA1021902000F020FA14
:100D20000021922000F01CFA0321932000F018FA11
:100D30004FF48871952000F013FA0021972000F0FD
:100D40000FFA0021982000F00BFA41F2380103203D
:100D500000F006FA40F23711072000F001FA4FF0D8
:100D600080503149086010BD2DE9F04704460D461A
:100D700016461F462B48007860B3A019A0F1010861
:100D8000E819A0F10109C4F30F21022000F0E8F9ED
:100D9000E1B2032000F0E4F9C8F30F21042000F0D1
:100DA000DFF908F0FF01052000F0DAF9C5F30F21A3
:100DB000062000F0D5F9E9B2072000F0D1F9C9F317
:100DC0000F21082000F0CCF909F0FF01092000F004
:100DD000C7F91BE0A9B2502000F0C2F9E819401E83
:100DE00081B2512000F0BCF9A1B2522000F0B8F954
:100DF000A019401E81B2532000F0B2F9A9B2202000
:100E000000F0AEF9A1B2212000F0AAF9BDE8F08708
:100E100010B5F0234FF4A07200210846FFF7A4FF9D
:100E200010BD00000800001098C0092070B50446ED
:100E30000D46D048007820B3C4F30F21022000F003
:100E40008FF9E1B2032000F08BF9C4F30F210420E5
:100E500000F086F9E1B2052000F082F9C5F30F2118
:100E6000062000F07DF9E9B2072000F079F9C5F31A
:100E70000F21082000F074F9E9B2092000F070F9A0
:100E800007E0A9B2202000F06BF9A1B2212000F008
:100E900067F92220FFF7F1FBB7494888FFF7FFFB0E
:100EA00070BDB54948807047B3490880704770B538
:100EB0000546FFF7ADFF2220FFF7DFFB00F03BF90F
:100EC000002403E0284600F042F9641CB4F5963F84
:100ED000F8D300F038F970BD2DE9FF5F8346164660
:100EE00099460E9F4B46324658460199FFF73CFF04
:100EF0002220FFF7C2FB00F01EF9F01D4FEAD00AD6
:100F0000BAF1010F16D1002511E097F800807F1C7F
:100F1000002409E028FA04F101F00101964A32F8B0
:100F2000110000F014F9641CB442F3D36D1C4D455C
:100F3000EBD318E0BAF1020F15D1002511E0B7F894
:100F40000080BF1C002409E028FA04F101F001012F
:100F5000894A32F8110000F0FAF8641CB442F3D365
:100F60006D1C4D45EBD300F0EEF8BDE8FF9FF8B5E2
:100F700005460E4617461C46A4F12000C4B217B120
:100F8000012F1CD10CE07D4800EBC400E90006EB0A
:100F900046020090500008230622FFF79DFF0EE056
:100FA00004EB4400764901EB001005EB4502D1004B
:100FB0000090300118231022FFF78EFF00BF00BF02
:100FC000F8BD2DE9F04106460D4617461C4607E0E0
:100FD00014F8013B29466D1C3A463046FFF7C7FF1F
:100FE00020780028F4D1BDE8F08170B590B00646B5
:100FF0000D46FFF70DFF15B1012D1CD10DE00024AA
:1010000004E0202001A90855601CC4B2362CF8DB8E
:10101000002101AA601C11540DE0002404E02020EE
:1010200001A90855601CC4B2142CF8DB002101AAE8
:10103000601C115400BF00BF01AB2A46002130469E
:10104000FFF7BFFF10B070BD2DE9F04781468A461B
:1010500014461E46089F07FB04F0870A33462246C3
:1010600051464846FFF780FE2220FFF706FB00F0BE
:1010700062F84FF0000812E000250BE0BD4204D3F7
:101080003D49088800F063F803E03B49488800F0D8
:101090005EF86D1C601EA842F0D208F10108B04550
:1010A000EAD300F050F8BDE8F0872DE9F05F804604
:1010B000894614461F46DDF828A0D3463B46224603
:1010C00049464046FFF750FE2220FFF7D6FA00F0CF
:1010D00032F8781E00FB04F50AE0002605E0A919A5
:1010E0003BF8110000F033F8761CA642F7D32D1B15
:1010F000002DF2DA00F027F8BDE8F09F704710B538
:1011000004462046FFF7B9FA10BD70B504460D46F7
:101110002946204600F024F870BD01461948816038
:1011200000BF1848C06800F004000028F9D0154836
:101130008068C0B2704710B540201349C861722062
:10114000FFF7EBFF10BD40200F498861704710B5D5
:1011500004462012FFF7E1FFE0B2FFF7DEFF10BD0B
:1011600070B505460C462846FFF787FA2046FFF77C
:1011700096FA70BD0800001004000010301900003D
:10118000B01C00000000034000C0092010B5174843
:1011900001680068401C154A1060632905D30020CF
:1011A0001146086001201249087012480168006861
:1011B000401C104A106010480088B1EB202F12D359
:1011C0000020114608600D48006840000B49086087
:1011D00008460068B0F5807F01D901200860074803
:1011E0000068FFF769F800F018F910BD180000104A
:1011F000140000101C00001024000010200000103B
:1012000008B5002400254FF6FF76FFF719F8FEF722
:10121000DDFF00F0D5F8FFF7B7FA3046FFF747FEDD
:101220001F20FFF741FE3046FFF73BFE3FA30122A0
:1012300000210846FFF7C5FE42A301220021104607
:10124000FFF7BFFE45A3012200210220FFF7B9FEF0
:101250003046FFF729FE1F20FFF723FE45A301229A
:1012600000210520FFF7ADFE484800686422B0FB6E
:10127000F2F1481EB0F1807F00D31DE0481E4FF010
:10128000E022506150171F22002809DAD3064FEAE6
:10129000136C3F4B00F00F073F1F03F807C003E03C
:1012A000D3061F0E3B4B1F5400BF00204FF0E0221F
:1012B00090610720106100BF36E03748007870B1B8
:1012C0000020354908703548008804EB0024641C70
:1012D000E0B2102803D1200AC0F30F15002485EADC
:1012E0000600B8B12E462A462DA12F4800F04AF933
:1012F0004FF47840FFF7D5FD2B4B01220921052043
:10130000FFF75FFEA8101423B0229021009008463A
:10131000FFF79AFE2548007830B100202349087075
:10132000214923A000F022F9C7E700002020202057
:101330004D4342313730302044656D6F20202020EE
:101340000000000020202020202020426C696E6BCD
:101350007920202020202020000000002020777706
:10136000772E67736173696E6469612E636F6D2098
:101370002020200041442076616C75653A202020B1
:10138000202020202020202020000000000000102D
:1013900018ED00E000E400E026000010240000103A
:1013A0003078253034580000280000101400001058
:1013B00041442076616C75653A2025730D0A000062
:1013C0002848006840F410402649C439C1F8C400D8
:1013D0002548406820F4402023494860084640687A
:1013E00040F4802048600846406C20F44020486467
:1013F0000846406C40F4002048641C481C490860C2
:101400004013C8601620012181404209920002F178
:10141000E022C2F8001100BF70471548006820F0B4
:10142000E060134908600846006840F0807008607A
:1014300070470F48006820F0E0600D490860704771
:101440000C480088704708B50948006B00900848B0
:101450004068C0F30B100749088001200649087056
:1014600008BD0000C4C00F4000C0024004042000BA
:1014700000400340240000102600001053EA020C34
:1014800000F069802DE9F04B4FF00006002B1FBFE4
:10149000B3FA83F503FA05F424FA05F65E4012BFA9
:1014A0001643B2FA82F502FA05F4C5F120051EBF13
:1014B00022FA05FC44EA0C04203556EA044C4FEAB3
:1014C000144418BF641C4FF000084FF0000990420C
:1014D00071EB030C39D3002919BFB1FA81F701FA76
:1014E00007F6B0FA80F700FA07F6C7F120071EBF2B
:1014F00020FA07FC46EA0C062037B6FBF4FCA7EB03
:101500000507103F07F01F0BCBF120060CFA0BFB71
:101510002CFA06F644BFB3460026202FA4BF5E4631
:101520004FF0000B5BEA060C08BF4FF0010B19EB04
:101530000B09ABFB027C48EB0608C01B06FB02CC88
:101540000BFB03CC71EB0C01C1E70B460246414695
:101550004846BDE8F08B13B54FF000004FF0000196
:10156000AFF30080BDE81C40704700000FB4044991
:1015700010B503AA029800F0B9F910BC5DF814FB8D
:101580000C0000100FB41CB5074B06AA7B4469463B
:101590000090059800F081F900206946FEF7A7FE4B
:1015A0001CBC5DF814FB00005FEDFFFF70B5044646
:1015B00085690068C10601D5302600E02026C007F5
:1015C00007D070BDD4E9012130469047206A401C05
:1015D00020626D1EF6D570BD70B504468569007831
:1015E000C00707D170BDD4E9012120209047206AAF
:1015F000401C20626D1EF6D570BD70B50C460546C8
:10160000012A05D02878800600D5EA69002302E087
:10161000012305E05B1C934202D2E05C0028F9D173
:10162000A869E618C01AA861286A184428622846E2
:10163000FFF7BCFF04E0D5E9012114F8010B904746
:10164000B442F8D32846FFF7C7FF70BD70B5044613
:101650000D4621461068AFF300802188090502D5A8
:101660000F4A7A4402E00E4A7A440E32002104F115
:10167000240305E000F00F060009965D5E54491C46
:101680000028F7D120780023000704D5702D02D060
:1016900009B1022311322046BDE8704000F09EB827
:1016A0006A1B00002DE9F05F894604464FF0000AEE
:1016B000DFF824B1FB44C0F820A02046E168884749
:1016C00000287DD0252806D0D4E901219047206A42
:1016D000401C2062F1E700255F462046E16888470C
:1016E0002028064607DB312E05D2B81910F8200C49
:1016F00008B10543F1E7A80701D525F00405C4F8B2
:101700001CA00027C4F818A02A2E09D0304600F0EB
:1017100008F938B304EB8708303EC8F8186019E0C0
:1017200059F8041B204604EB87029161E168884761
:10173000012F064618D1E069002820DA25F020059F
:101740001DE0D8F8180000EB800006EB40003038B0
:10175000C8F818002046E1688847064600F0E1F81E
:101760000028EED1012F0AD02E2E08D12046E168A4
:1017700088477F1C0646022F45F02005C4DBA06980
:10178000002803DA404245F00105A061E80701D0D6
:1017900025F01005A6B1A6F14100192802D820367F
:1017A00045F400654A463146204625604D46FEF721
:1017B000C7FC60B1012807D0ED1D25F0070000E04F
:1017C00007E000F1080978E705F1040975E73046FC
:1017D0007AE7206ABDE8F09F401B00002DE9F04742
:1017E0000D4699469246044600F124080168880691
:1017F00004D5E06921F01001216000E00120A84239
:1018000001DD471B00E00027A1697A1902EB0900FE
:10181000081AA0612078C00602D42046FFF7C6FE51
:10182000002608E0D4E901211AF806009047206A52
:10183000401C761C20624E45F4DB2078C0060AD599
:101840002046FFF7B3FE06E0D4E90121302090479F
:10185000206A401C2062381EA7F10107F4DC07E073
:10186000D4E9012118F805009047206A401C206245
:10187000281EA5F10105F3DC2046FFF7ADFE207818
:10188000000602D50220BDE8F0870120FBE700003A
:1018900001694A1C02610878704700B58FB0CDE934
:1018A00001310021059105497944CDE90310114624
:1018B0006846FFF7F7FE0FB000BD0000E5FFFFFF31
:1018C00010B5436913B1AFF3008001E0FFF795FE57
:1018D000012010BD127800F124010A7000224A7024
:1018E0000122EDE711684FF0FF32E9E7074B70B5D1
:1018F0000D467B44FFF7D1FF04462846FEF75AFC0D
:1019000010B14FF0FF3070BD204670BDA7E8FFFF5B
:1019100010B50446AFF300802046BDE81040FEF746
:1019200025BC30380A2801D20120704700207047BA
:10193000000000000000000004040404040004008F
:101940000A0A0A00000000000A0A1F0A1F0A0A0009
:10195000041E050E140F04000313080402191800D6
:1019600002050502150916000C0C04020000000017
:101970000804020202040800020408080804020025
:101980000004150E0E1504000004041F04040000DA
:10199000000000000C0C04020000001F000000000A
:1019A00000000000000C0C00001008040201000000
:1019B0000E11131519110E000406040404040E0080
:1019C0000E11100E01011F001F10080C10110E0047
:1019D000080C0A091F0808001F010F1010110E0043
:1019E0001C02010F11110E001F101008040201004B
:1019F0000E11110E11110E000E11111E100807000C
:101A000000000400040000000000040004040200C0
:101A1000100804020408100000001F001F0000004E
:101A200002040810080402000E11100C0400040047
:101A30000E11151D0D011E00040A11111F111100B8
:101A40000F11110F11110F000E11010101110E00E4
:101A50000F11111111110F001F01010F01011F00C2
:101A60001F01010F010101001E11010119111E00CA
:101A70001111111F111111000E04040404040E00B1
:101A80001C080808080906001109050305091100CA
:101A90000101010101011F00111B15151511110094
:101AA00011111315191111000E11111111110E0040
:101AB0000F11110F010101000E111111150916006E
:101AC0000F11110F050911000E11010E10110E005A
:101AD0001F150404040404001111111111110E004A
:101AE00011111111110A04001111111515150A0017
:101AF00011110A040A11110011110A04040404004E
:101B00001F10080E02011F001E02020202021E0028
:101B100000010204081000001E10101010101E001A
:101B2000040A1100000000000000000000001F0077
:101B30000606040800000000000006080E091E004A
:101B400001010D1311130D0000000E1101110E0003
:101B5000101016191119160000000E111F010E00A9
:101B60000814040E0404040000000E191916100EC7
:101B700001010D13111111000400060404040E00EC
:101B80000800080808090600010109050305090005
:101B90000604040404040E0000000B1515151500BE
:101BA00000000D131111110000000E1111110E0093
:101BB00000000D13130D0101000016191916101065
:101BC00000000D130101010000001E010E100F00A6
:101BD00004041F0404140800000011111119160058
:101BE00000001111110A04000000111115150A005E
:101BF0000000110A040A1100000011111E10110E3C
:101C000000001F0804021F00080404020404080066
:101C10000404040004040400020404080404020090
:101C20000215080000000000000000000000000095
:101C300000000C12120C000000000C1E1E0C000014
:101C400000001E12121E000000001E1E1E1E0000BC
:101C500000000C0C121E000000000C0C1E1E0000E8
:101C600000001E120C0C000000001E1E0C0C0000D8
:101C700000001816161800000000181E1E1800009C
:101C80000000061A1A0600000000061E1E060000CC
:101C900000000C12120C000000000C1E1E0C0000B4
:101CA00000001E12121E000000001E1E1E1E00005C
:101CB0000000000000000000000000000000000024
:101CC0000000000000000000000000000000000014
:101CD0000000000000000000000000000000000004
:101CE000000080018001800180018001800180016D
:101CF00080018001800180018001800100000000DE
:101D000080018001000000000000000000000000D1
:101D100000000000CC00CC00CC00CC00CC00CC00FB
:101D200000000000000000000000000000000000B3
:101D300000000000000000000000000000000000A3
:101D4000000000000000000000000000600C600CBB
:101D5000600C30063006FE1FFE1F300638071803E1
:101D6000FE1FFE1F180318038C018C018C0100005C
:101D700000008000E003F80F9C0E8C1C8C188C0077
:101D80009800F801E007800E801C8C188C189C18B5
:101D9000B80CF00FE003800080000000000000009D
:101DA0000000000000000E181B0C110C110611069B
:101DB000110311039B018E01C038C06C6044604464
:101DC000304430441844186C0C3800000000000007
:101DD0000000E001F0033807180618063003F00190
:101DE000F000F8009C310E33061E061C061C063F50
:101DF000FC73F02100000000000000000000000063
:101E0000000000000C000C000C000C000C000C008A
:101E100000000000000000000000000000000000C2
:101E200000000000000000000000000000000000B2
:101E30000000000200038001C000C00060006000DC
:101E40003000300030003000300030003000300012
:101E500060006000C000C0008001000300020000BC
:101E6000000020006000C00080018001000300032A
:101E70000006000600060006000600060006000632
:101E80000003000380018001C0006000200000000A
:101E9000000000000000000000000000C000C000C2
:101EA000D806F807E0013003380700000000000002
:101EB0000000000000000000000000000000000022
:101EC0000000000000000000000000008001800110
:101ED000800180018001FC3FFC3F80018001800186
:101EE00080018001000000000000000000000000F0
:101EF00000000000000000000000000000000000E2
:101F000000000000000000000000000000000000D1
:101F1000000080018001000100018000000000003D
:101F200000000000000000000000000000000000B1
:101F30000000000000000000E007E00700000000D3
:101F40000000000000000000000000000000000091
:101F50000000000000000000000000000000000081
:101F60000000000000000000000000000000000071
:101F70000000C000C00000000000000000000000E1
:101F80000000000C000C0006000600060003000321
:101F900000038003800180018001C000C000C000F8
:101FA0006000600000000000000000000000000071
:101FB0000000E003F007380E180C0C180C180C1871
:101FC0000C180C180C180C180C180C18180C380ECF
:101FD000F007E00300000000000000000000000027
:101FE000000000018001C001F0019801880180011A
:101FF00080018001800180018001800180018001D9
:1020000080018001000000000000000000000000CE
:102010000000E003F80F180C0C180C18001800183A
:10202000000C000600038001C000600030001800B2
:10203000FC1FFC1F0000000000000000000000006A
:102040000000E001F807180E0C0C0C0C000C000648
:10205000C003C007000C001800180C180C18180C4E
:10206000F807E0030000000000000000000000008E
:102070000000000C000E000F000F800DC00C600C63
:10208000600C300C180C0C0CFC3FFC3F000C000CDE
:10209000000C000C00000000000000000000000028
:1020A0000000F80FF80F180018000C00EC03FC07F4
:1020B0001C0E001C0018001800180C181C0C180E20
:1020C000F807E0030000000000000000000000002E
:1020D0000000C007F00F381C181818000C00CC03C3
:1020E000EC0F3C0E1C1C0C180C180C18181C380E8D
:1020F000F007E00300000000000000000000000006
:102100000000FC1FFC1F000C0006000600038003FB
:102110008001C001C000E00060006000700030007D
:10212000300030000000000000000000000000004F
:102130000000E003F007380E180C180C180C3806D5
:10214000F007F007180C0C180C180C180C18380CA9
:10215000F80FE00300000000000000000000000095
:102160000000E003F007380E1C0C0C180C180C18BB
:102170001C1C381EF81BE0190018000C000C1C0E6B
:10218000F807F0010000000000000000000000005F
:10219000000000000000000000000000800180013D
:1021A000000000000000000000000000000000002F
:1021B000800180010000000000000000000000001D
:1021C000000000000000000000000000800180010D
:1021D00000000000000000000000000000000000FF
:1021E000800180010001000180000000000000006B
:1021F00000000000000000000000000000000000DF
:102200000010001C800FE003F8001800F800E00345
:10221000800F001C00100000000000000000000003
:1022200000000000000000000000000000000000AE
:10223000F81F000000000000F81F00000000000070
:10224000000000000000000000000000000000008E
:10225000000000000000000000000000000000007E
:1022600008003800F001C007001F0018001FC00759
:10227000F00138000800000000000000000000002D
:102280000000E003F80F180C0C180C180018000CD4
:10229000000600038001C000C000C0000000000074
:1022A000C000C000000000000000000000000000AE
:1022B00000000000E00718180420C229224A114437
:1022C00009440944094409221113E20C0240042084
:1022D0001818E007000000000000000000000000E7
:1022E000000080038003C006C006C006600C600CBE
:1022F000301830183018F83FF83F1C700C600C6034
:1023000006C006C000000000000000000000000041
:102310000000FC03FC0F0C0C0C180C180C180C0C17
:10232000FC07FC0F0C180C300C300C300C300C1867
:10233000FC1FFC070000000000000000000000007F
:102340000000C007F01F38381C300C700660060013
:102350000600060006000600060006600C701C3031
:10236000F01FE00700000000000000000000000077
:102370000000FE03FE0F060E061806180630063093
:102380000630063006300630063006180618060EEF
:10239000FE0FFE030000000000000000000000002F
:1023A0000000FC3FFC3F0C000C000C000C000C007B
:1023B000FC1FFC1F0C000C000C000C000C000C009F
:1023C000FC3FFC3F00000000000000000000000097
:1023D0000000F83FF83F1800180018001800180017
:1023E000F81FF81F1800180018001800180018002F
:1023F00018001800000000000000000000000000AD
:102400000000E00FF83F3C780E6006E007C00300D4
:10241000030003FE03FE03C007C006C00EC03CF06D
:10242000F83FE00F00000000000000000000000086
:1024300000000C300C300C300C300C300C300C30F8
:10244000FC3FFC3F0C300C300C300C300C300C30AE
:102450000C300C3000000000000000000000000004
:1024600000008001800180018001800180018001E5
:102470008001800180018001800180018001800154
:10248000800180010000000000000000000000004A
:102490000000000600060006000600060006000612
:1024A0000006000600060006000618061806380793
:1024B000F003E00100000000000000000000000048
:1024C000000006300618060C060606038601C60044
:1024D00066007600DE008E0106030606060C06186E
:1024E0000630066000000000000000000000000050
:1024F0000000180018001800180018001800180034
:10250000180018001800180018001800180018000B
:10251000F81FF81F0000000000000000000000008D
:1025200000000EE01EF01EF01EF036D836D836D869
:1025300036D866CC66CC66CCC6C6C6C6C6C6C6C6C7
:1025400086C386C3000000000000000000000000F9
:1025500000000C301C303C303C306C306C30CC30E7
:10256000CC308C310C330C330C360C360C3C0C3C20
:102570000C380C30000000000000000000000000DB
:102580000000E007F81F1C380E70066003C003C08F
:1025900003C003C003C003C003C006600E701C3834
:1025A000F81FE0070000000000000000000000002D
:1025B0000000FC0FFC1F0C380C300C300C300C30C1
:1025C0000C18FC1FFC070C000C000C000C000C008D
:1025D0000C000C00000000000000000000000000E3
:1025E0000000E007F81F1C380E70066003E003C00F
:1025F00003C003C003C003C007E006630E3F1C3CDA
:10260000F83FE0F700C000000000000000000000FC
:102610000000FE0FFE1F0638063006300630063872
:10262000FE1FFE0706030606060C061806180630EF
:1026300006300660000000000000000000000000FE
:102640000000E003F80F1C0C0C180C180C001C0008
:10265000F803E00F001E0038063006300E301C1C58
:10266000F80FE0070000000000000000000000007C
:102670000000FE7FFE7F80018001800180018001DB
:102680008001800180018001800180018001800142
:102690008001800100000000000000000000000038
:1026A00000000C300C300C300C300C300C300C3086
:1026B0000C300C300C300C300C300C300C30181846
:1026C000F81FE0070000000000000000000000000C
:1026D000000003600630063006300C180C180C1889
:1026E000180C180C380E30063006700760036003B3
:1026F000C001C00100000000000000000000000058
:1027000000000360C361C361C3616633663366332F
:102710006633663366336C1B6C1B6C1B2C1A3C1EB9
:10272000380E380E0000000000000000000000001D
:1027300000000FE00C7018303018700C600EC007ED
:1027400080038003C003E006700C301C18180C30A6
:102750000E6007E000000000000000000000000024
:10276000000003C006600C301C383818300C6006BE
:10277000E007C003800180018001800180018001A9
:102780008001800100000000000000000000000047
:102790000000FC7FFC7F006000300018000C000689
:1027A00000038001C0006000300018000C0006002B
:1027B000FE7FFE7F0000000000000000000000001F
:1027C0000000E003E0036000600060006000600063
:1027D00060006000600060006000600060006000F9
:1027E00060006000600060006000E003E003000043
:1027F000000030003000600060006000C000C000D9
:10280000C000C001800180018001000300030003BB
:1028100000060006000000000000000000000000AC
:102820000000E003E00300030003000300030003D3
:102830000003000300030003000300030003000380
:1028400000030003000300030003E003E0030000B3
:1028500000000000C001C001600360036003300697
:102860003006180C180C00000000000000000000EA
:102870000000000000000000000000000000000058
:102880000000000000000000000000000000000048
:102890000000000000000000000000000000000038
:1028A0000000FFFFFFFF000000000000000000002C
:1028B00000000C000C000C000C000C000C000000D0
:1028C0000000000000000000000000000000000008
:1028D00000000000000000000000000000000000F8
:1028E000000000000000000000000000F003F807F6
:1028F0001C0C0C0C000FF00FF80C0C0C0C0C1C0F2B
:10290000F80FF018000000000000000000000000B8
:10291000000018001800180018001800D803F80F5D
:10292000380C181818181818181818181818380CFF
:10293000F80FD803000000000000000000000000B5
:10294000000000000000000000000000C003F007CD
:10295000300E180C1800180018001800180C300E53
:10296000F007C003000000000000000000000000AD
:10297000000000180018001800180018C01BF01FF5
:10298000301C181818181818181818181818301C8F
:10299000F01FC01B0000000000000000000000004D
:1029A000000000000000000000000000C003F00F65
:1029B000300C1818F81FF81F180018003818301CB1
:1029C000F00FC00700000000000000000000000041
:1029D0000000800FC00FC000C000C000F007F0076B
:1029E000C000C000C000C000C000C000C000C000E7
:1029F000C000C00000000000000000000000000057
:102A0000000000000000000000000000E00DF80FD2
:102A1000180E0C0C0C0C0C0C0C0C0C0C0C0C180EDA
:102A2000F80FE00D000C0C0C1C06F807F00100007C
:102A3000000018001800180018001800D807F80F38
:102A4000381C1818181818181818181818181818E2
:102A50001818181800000000000000000000000016
:102A60000000C000C000000000000000C000C00066
:102A7000C000C000C000C000C000C000C000C00056
:102A8000C000C000000000000000000000000000C6
:102A90000000C000C000000000000000C000C00036
:102AA000C000C000C000C000C000C000C000C00026
:102AB000C000C000C000C000C000F80078000000E6
:102AC00000000C000C000C000C000C000C0C0C06A0
:102AD0000C038C01CC006C00FC009C018C030C03EB
:102AE0000C060C0C000000000000000000000000BC
:102AF0000000C000C000C000C000C000C000C00096
:102B0000C000C000C000C000C000C000C000C000C5
:102B1000C000C00000000000000000000000000035
:102B20000000000000000000000000007C3CFF7E70
:102B3000C7E383C183C183C183C183C183C183C10F
:102B400083C183C1000000000000000000000000FD
:102B50000000000000000000000000009807F80FCF
:102B6000381C1818181818181818181818181818C1
:102B700018181818000000000000000000000000F5
:102B8000000000000000000000000000C003F00F83
:102B9000300C181818181818181818181818300C9D
:102BA000F00FC00300000000000000000000000063
:102BB000000000000000000000000000D803F80F33
:102BC000380C181818181818181818181818380C5D
:102BD000F80FD8031800180018001800180000009B
:102BE000000000000000000000000000C01BF01FFB
:102BF000301C181818181818181818181818301C1D
:102C0000F01FC01B00180018001800180018000062
:102C1000000000000000000000000000B007F0030A
:102C200070003000300030003000300030003000E4
:102C30003000300000000000000000000000000034
:102C4000000000000000000000000000E003F003AE
:102C5000380E180C3800F003C007000C180C380EA2
:102C6000F007E0030000000000000000000000008A
:102C7000000000008000C000C000C000F007F007A6
:102C8000C000C000C000C000C000C000C000C00044
:102C9000C0078007000000000000000000000000E6
:102CA00000000000000000000000000018181818C4
:102CB0001818181818181818181818181818381C70
:102CC000F01FE019000000000000000000000000FC
:102CD0000000000000000000000000000C18180CAC
:102CE000180C180C300630063006600360036003D1
:102CF000C001C00100000000000000000000000052
:102D0000000000000000000000000000C141C141BF
:102D1000C3616363636363633636363636361C1CC1
:102D20001C1C1C1C00000000000000000000000033
:102D30000000000000000000000000001C38381CEB
:102D4000300C6006C003C003C003C0036006300C33
:102D5000381C1C38000000000000000000000000CB
:102D600000000000000000000000000018303018D3
:102D700030187018600C600CE00CC006C0068003B0
:102D80008003800380018001C001F000700000001A
:102D9000000000000000000000000000FC1FFC1FFD
:102DA000000C000600038001C00060003000180025
:102DB000FC1FFC1F000000000000000000000000DD
:102DC000000000038001C000C000C000C000C000BF
:102DD000C00060006000300060004000C000C00023
:102DE000C000C000C000C00080010003000000005F
:102DF000000080018001800180018001800180014C
:102E000080018001800180018001800180018001BA
:102E1000800180018001800180018001800100002B
:102E200000006000C000C0018001800180018001BD
:102E300080010003000300060003000180018001FF
:102E40008001800180018001C0006000000000005E
:102E50000000000000000000000000000000000072
:102E6000F010F81F080F0000000000000000000034
:102E70000000000000000000000000000000000052
:102E80000000000000000000000000000000000042
:102E90000000000000000000000000000000000032
:102EA0000000000000000000000000000000000022
:102EB00000000000000000000000C003300C0810FB
:102EC000042004200240024002400240024004204C
:102ED00004200810300CC0030000000000000000B7
:102EE00000000000000000000000C003F00FF81F09
:102EF000FC3FFC3FFE7FFE7FFE7FFE7FFE7FFC3FB0
:102F0000FC3FF81FF00FC0030000000000000000AD
:102F10000000000000000000000000000000E007CA
:102F2000F00F181818181818181818181818F00F83
:102F3000E0070000000000000000000000000000AA
:102F40000000000000000000000000000000E0079A
:102F5000F00FF81FF81FF81FF81FF81FF81FF00FE9
:102F6000E00700000000000000000000000000007A
:102F70000000000000000000000000000000000051
:102F800000000000000000008001C0036006300C5B
:102F900018181818F81FF81F0000000000000000A3
:102FA0000000000000000000000000000000000021
:102FB00000000000000000008001C003E007F00FE7
:102FC000F81FF81FF81FF81F0000000000000000A5
:102FD0000000000000000000F81FF81F1818181863
:102FE000300C6006C00380010000000000000000FB
:102FF00000000000000000000000000000000000D1
:103000000000000000000000F81FF81FF81FF81F64
:10301000F00FE007C0038001000000000000000086
:1030200000000000000000000000000000000000A0
:103030000000000000000000000000000000E001AF
:10304000F00198018C01860186018C019801F00144
:10305000E00100000000000000000000000000008F
:103060000000000000000000000000000000E0017F
:10307000F001F801FC01FE01FE01FC01F801F00184
:10308000E00100000000000000000000000000005F
:1030900000000000000000000000000000008007A9
:1030A000800F801980318061806180318019800FAC
:1030B0008007000000000000000000000000000089
:1030C0000000000000000000000000000000800779
:1030D000800F801F803F807F807F803F801F800F18
:1030E0008007000000000000000000000000000059
:1030F0000000C00120022002400130060808080834
:103100000808080808080808080820022002200209
:1031100020022002200220022002200220020000C1
:103120000000C001E003E003C001F007D80DD80D96
:10313000D80DD80DD80DD80DD80D600360036003ED
:1031400060036003600360036003600360030000CA
:103150000000C001200220024001300608080808D3
:10316000080804100220022040012002200210045E
:10317000080808080410041004200440000000009F
:103180000000C001E003E003C001F007D80DD80D36
:10319000D80DCC19C631C261C0016003600370064E
:1031A000380C180C0C180C180C300C6000000000C7
:1031B000000000100000002000000080040000005B
:1031C0000800000010000000200000004000000087
:1031D000303132333435363738394142434445464D
:1031E0004030580030313233343536373839616247
:1031F0006364656640307800040000080000000049
:103200000000000200010000100000002C3200004D
:1032100000000010280000000801000054320000E7
:1032200028000010100200002401000000E1F50554
:10323000FFFF000000000000000000000000000090
:10324000000000000000000000000000010000007D
:04325000000000007A
:04000005000001797D
:00000001FF
